:100000000C9462000C947F000C947F000C947F0091
:100010000C947F000C947F000C947F000C947F0064
:100020000C947F000C947F000C947F000C947F0054
:100030000C947F000C947F000C947F000C947F0044
:100040000C94C3020C947F000C947F000C947F00EE
:100050000C947F000C947F000C947F000C947F0024
:100060000C947F000C947F00000000002400270007
:100070002A0000000000250028002B0000000000DE
:1000800023002600290004040404040404040202DA
:100090000202020203030303030301020408102007
:1000A0004080010204081020010204081020000012
:1000B0000008000201000003040700000000000027
:1000C00000009D0311241FBECFEFD8E0DEBFCDBFDF
:1000D00021E0A0E0B1E001C01D92AA34B207E1F72F
:1000E00010E0C2E6D0E004C02197FE010E94DA03CE
:1000F000C136D107C9F70E940D030C94E0030C949C
:100100000000833081F028F4813099F08230A9F02A
:1001100008958730A9F08830C9F08430B1F4809117
:1001200080008F7D03C0809180008F778093800056
:10013000089584B58F7784BD089584B58F7DFBCFF6
:100140008091B0008F778093B00008958091B000C7
:100150008F7DF9CFCF93DF93282F30E0F901E2555F
:10016000FF4F8491F901E656FF4FD491F901EA5708
:10017000FF4FC491CC23A1F081110E948100EC2F8C
:10018000F0E0EE0FFF1FE458FF4FA591B491EC9102
:10019000ED2381E090E009F480E0DF91CF910895B4
:1001A00080E090E0FACF1F93CF93DF93282F30E0C9
:1001B000F901E255FF4F8491F901E656FF4FD491C2
:1001C000F901EA57FF4FC491CC23A9F0162F8111F2
:1001D0000E948100EC2FF0E0EE0FFF1FEE58FF4F62
:1001E000A591B4918FB7F894EC91111108C0D095F6
:1001F000DE23DC938FBFDF91CF911F910895DE2B1B
:10020000F8CFCF93DF9390E0FC01E656FF4F2491A7
:100210008A579F4FFC0184918823D1F090E0880F8A
:10022000991FFC01E859FF4FA591B491FC01EE58CC
:10023000FF4FC591D49161110EC09FB7F8948C9176
:10024000E22FE0958E238C932881E223E8839FBFE1
:10025000DF91CF9108958FB7F894EC91E22BEC9356
:100260008FBFF6CF3FB7F894809146019091470138
:10027000A0914801B091490126B5A89B05C02F3F28
:1002800019F00196A11DB11D3FBFBA2FA92F982FBC
:100290008827BC01CD01620F711D811D911D42E0B7
:1002A000660F771F881F991F4A95D1F70895CF923F
:1002B000DF92EF92FF920F931F93CF93DF93FC0196
:1002C0002081222309F457C0EC0181859285019792
:1002D00009F04EC02FB7F89460914201709143012C
:1002E00080914401909145012FBF0B891C892D8974
:1002F0003E896B017C01C01AD10AE20AF30A098126
:100300001A812B813C81C016D106E206F30698F1D2
:100310006B8B7C8B8D8B9E8B8B859C85AD85BE85F9
:100320004D815E816F817885481B590B6A0B7B0B71
:10033000413051056105710549F48F3FFFEF9F077B
:10034000AF07BF0719F01882188A1F860196A11DF2
:10035000B11D8B879C87AD87BE87E989FA89DF91BC
:10036000CF911F910F91FF90EF90DF90CF90099464
:100370000E943201BACFDF91CF911F910F91FF9070
:10038000EF90DF90CF900895CF93DF93FC01218908
:100390003289232BF1F0EC01818592850197E1F4FC
:1003A0002FB7F8948091420190914301A0914401AC
:1003B000B09145012FBF838B948BA58BB68B81E0C9
:1003C00088831B861C861D861E8681E090E0988BA4
:1003D0008F87DF91CF9108950E9432016B8B7C8BC8
:1003E0008D8B9E8BECCFCF938091030181115BC0ED
:1003F000C0910701C13009F056C088E08093030125
:1004000061E085E00E94D30080910201882309F415
:1004100043C060E083E00E94D3001092020180910B
:10042000040181114BC0C0910501C13009F046C0E3
:1004300088E08093040161E086E00E94D30060E0E0
:1004400087E00E94D30080910101882381F160E060
:1004500084E00E94D300109201018091000181117B
:1004600039C0909105019230A9F583E08093000195
:1004700061E087E00E94D30060E086E00E94D30044
:10048000809101018823F1F060E084E00E94D300B4
:1004900010920101CF91089561E083E00E94D300A2
:1004A000C0930201BCCF815080930301B8CF61E0BB
:1004B00084E00E94D300C0930101CFCF815080938C
:1004C0000401CBCF61E084E00E94D30081E08093FF
:1004D0000101E0CF815080930001DCCF80910A01BF
:1004E000882309F442C08091080181113EC081E057
:1004F0008093080190910701911134C08093070106
:10050000809109018823C9F180910601811135C0CC
:1005100081E080930601809105018F5F833050F563
:100520008093050180910701811108C060E083E09C
:100530000E94D30060E085E00E94D3008091040116
:10054000882321F08091050181111CC060E084E0C6
:100550000E94D30060E087E00E94D30060E086E064
:100560000C94D30010920701CBCF10920801109287
:100570000A01C6CF10920501D5CF10920601109244
:100580000901D0CF08951F920F920FB60F92112438
:100590002F933F938F939F93AF93BF93809142018B
:1005A00090914301A0914401B091450130914101E6
:1005B00023E0230F2D3758F50196A11DB11D20937F
:1005C00041018093420190934301A0934401B09371
:1005D00045018091460190914701A0914801B09159
:1005E00049010196A11DB11D8093460190934701D9
:1005F000A0934801B0934901BF91AF919F918F9112
:100600003F912F910F900FBE0F901F90189526E8E5
:10061000230F0296A11DB11DD2CF789484B58260BC
:1006200084BD84B5816084BD85B5826085BD85B596
:10063000816085BD80916E00816080936E00109214
:10064000810080918100826080938100809181008F
:100650008160809381008091800081608093800020
:100660008091B10084608093B1008091B00081607E
:100670008093B00080917A00846080937A008091AA
:100680007A00826080937A0080917A008160809302
:100690007A0080917A00806880937A001092C1007D
:1006A00061E083E00E94010161E084E00E940101B9
:1006B00061E085E00E94010161E086E00E940101A5
:1006C00061E087E00E94010160E08EE00E9401018C
:1006D00060E08FE00E94010186E291E00E94C40187
:1006E0008BE091E00E94C401C0E0D0E086E291E09E
:1006F0000E9457018BE091E00E94570180910A010E
:10070000811109C08EE00E94AA0021E0892B09F422
:1007100020E020930A0180910901811109C08FE036
:100720000E94AA0021E0892B09F420E0209309010E
:100730002097E1F20E940000D9CFE6E2F1E081E0EB
:1007400090E09287818741E050E060E070E0418373
:10075000528363837483158216821782108623EF77
:1007600031E0328B218B1082138A148A158A168A03
:100770001386148615861686EBE0F1E09287818752
:1007800088EC90E0A0E0B0E081839283A383B483FF
:1007900015821682178210868EE692E0928B818BEC
:1007A0001082138A148A158A168A1386148615866F
:1007B00016860895EE0FFF1F0590F491E02D099421
:0407C000F894FFCFDB
:00000001FF
